:0300000002098E64
:0C098E00787FE4F6D8FD75814B0209D596
:100A1A00496E63697869616C697A61000203270B20
:100A2A00BADC4E3401F52D5D020C83D502102FBDC0
:100A3A00BF3A021E0A40789C01F987FF83C4FA4D27
:100A4A00866F867B61F95BF50A424E31020EC1BDA3
:100A5A000220D6F783565ABFB7F8B80434AC018FD0
:100A6A0034B034AF34AD60F9018E34B156984C5578
:060A7A00018B29A9F6D54D
:0C0CC0000132000131000134000133005A
:100C8400120C59120CAC120C0F7BFF7A0A791A124F
:040C94000B5C80FE77
:100C0F007F38120CED7F38120CED7F0E120CED7F3A
:0C0C1F0006120CED7F01120CED020C2BF4
:100C6F00C28CC28D5389F0438902758AB6D28C30FB
:050C7F008DFDC28C2276
:100C2B00C28CC28D5389F0438901758CF4758A157A
:080C3B00D28C308DFDC28C2229
:0C0CE100D2B68F90D2B7120C6FC2B722AF
:0B0CED00C2B68F90D2B7C2B7020C6FE6
:060B83008B478A488949F6
:100B8900E4FEAB47AA48A949EEFD3395E08D82F50D
:100B990083120AF1FF6006120CE10E80E5020C6F68
:080D01007F01120CED020C2B26
:0D0CD300120800EF654A60038F4A227F007F
:010CE00022F1
:100C4300C28CC28D5389F0438902758CF8758ACCA6
:060C5300D28C308DFD2261
:100C9800E4FEE5806F60037F0022120C430EBE095C
:030CA800F17F01D8
:010CAB002226
:10080000C280D281D282AF80EF2442601724E060A0
:100810001E24F060252470702C7F7E120C98EF60EF
:10082000037F31227FBE120C98EF60037F34227F5A
:10083000DE120C98EF60037F37227FEE120C98EFE8
:1008400060037F2A22D280C281D282AF80EF24430C
:10085000601724E0601E24F060252470702C7F7DDA
:10086000120C98EF60037F32227FBD120C98EF606C
:10087000037F35227FDD120C98EF60037F38227FE3
:10088000ED120C98EF60037F3022D280D281C282B9
:10089000AF80EF2445601724E0601E24F06025241B
:1008A00070702C7F7B120C98EF60037F33227FBB2C
:1008B000120C98EF60037F36227FDB120C98EF60FA
:1008C000037F39227FEB120C98EF60037F23227F96
:0208D000002204
:090CF8004D4C004D42004D480036
:030CCC000108001C
:100C590053890F438920758BFD758DFDD28E75984B
:060C690050D2AFD2AC2214
:060B5C008B2C8A2D892E6E
:100B6200E4FFAB2CAA2DA92EEFFD3395E08D82F583
:100B720083120AF1600AF5993099FDC2990F80E259
:010B82002250
:03002300020A804E
:100A8000C0E0C0F0C083C082C0D075D000C000C03C
:0D0A900001C002C003C004C005C006C007BD
:100A9D00309818C29874092508F8A699740A250883
:100AAD00F8E67005F5081208D20508309902C299CA
:100ABD00D007D006D005D004D003D002D001D0008D
:0B0ACD00D0D0D082D083D0F0D0E03237
:1008D200E509B45011E50AB44C0C7533017BFF7A7B
:1008E2000C79F8120B5CE509B45011E50AB4420C1C
:1008F200E4F5337BFF7A0C79FB120B5CE509B4500B
:100902001EE50AB44819850C31AF31120CE1850B92
:1009120032AF32120CE17BFF7A0C79FE120B5CE5EE
:1009220009B4500DE50AB44508E530B40103E4F515
:1009320030E509B4500DE50AB44308E530B40203CA
:10094200E4F530E509B4500DE50AB45408E530B4D5
:100952000303E4F530E509B4500DE50AB45308E5A4
:1009620030B40403E4F530E509B4500DE50AB447A8
:1009720008E530B40503E4F530E509B4500DE50AA5
:0C098200B45008E530B40603E4F5302260
:100BA90075354D753653753702120AD8F5389000E8
:100BB90001120AF1F5397530047B007A00793502A2
:020BC9000B5CC3
:100BCB00753B4D753C47753D02120AD8F53E9000BA
:100BDB0001120AF1F53F7530057B007A00793B0273
:020BEB000B5CA1
:100BED0075414D754250754302120AD8F544900077
:100BFD0001120AF1F5457530067B007A0079410244
:020C0D000B5C7E
:030CCF00014B00D6
:100CAC00E4F5C8F5CC75CD4CF5CA75CB4CD2CAD28F
:040CBC00AFD2AD22E4
:03002B00020B1EA7
:040B1E00C0E0C0D0A3
:100B2200C2CF054BC3E54B648094A84028754B00A7
:100B32000534E534648094BC401B7534000531E50E
:100B420031648094BC400E753100E5326480949823
:050B52004003753200B4
:050B5700D0D0D0E03217
:10099A00020C84E493A3F8E493A34003F68001F2E3
:1009AA0008DFF48029E493A3F85407240CC8C3335E
:1009BA00C4540F4420C8834004F456800146F6DF2D
:1009CA00E4800B0102040810204080900CC0E47EF1
:1009DA00019360BCA3FF543F30E509541FFEE49322
:1009EA00A360010ECF54C025E060A840B8E493A3E9
:1009FA00FAE493A3F8E493A3C8C582C8CAC583CA14
:100A0A00F0A3C8C582C8CAC583CADFE9DEE780BECB
:010CD2000021
:100AD800BB010689828A83E0225002E722BBFE021C
:090AE800E32289828A83E493224F
:100AF100BB010CE58229F582E5833AF583E02250BA
:100B010006E92582F8E622BBFE06E92582F8E22203
:0D0B1100E58229F582E5833AF583E493221D
:00000001FF
