:030000000209F6FC
:0C09F600787FE4F6D8FD758178020A3D98
:100B64000203270BBADC4E3401F52D5D020C83D54C
:100B740002102FBDBF3A021E0A40789C01F987FF7C
:100B840083C4FA4D866F867B61F95BF50A424E3168
:100B9400020EC1BD0220D6F783565ABFB7F8B80477
:100BA40034AC018F34B034AF34AD60F9018E34B15C
:0A0BB40056984C55018B29A9F6D57F
:0C0E0600013E00013D00014000013F00E2
:100DB600E4FF745B2FF9E76011C3EF6480949E50E3
:0A0DC60009745B2FF8E4F60F80E8D3
:010DD0002200
:100DEC00120E4D120E8C120D9A120EAF8F32E5327E
:0A0DFC0060F7120EBD120C4F80EFDD
:100D9A007F38120EC97F38120EC97F0E120EC97F14
:0C0DAA0006120EC97F01120EC9020E1FB6
:100E6300C28CC28D5389F0438902758AB6D28C3005
:050E73008DFDC28C2280
:100E1F00C28CC28D5389F0438901758CF4758A1584
:080E2F00D28C308DFDC28C2233
:0C0EBD00D2B68F90D2B7120E63C2B722DB
:0B0EC900C2B68F90D2B7C2B7020E6312
:060CE8008B538A5489556C
:100CEE00E4FEAB53AA54A955EEFD3395E08D82F583
:100CFE0083120981FF6006120EBD0E80E5020E639F
:080EDD007F01120EC9020E1F75
:0D0EAF00120800EF655960038F59227F0083
:010EBC002213
:100E3700C28CC28D5389F0438902758CF8758ACCB0
:060E4700D28C308DFD226B
:100E7800E4FEE5806F60037F0022120E370EBE0984
:030E8800F17F01F6
:010E8B002244
:10080000C280D281D282AF80EF2442601724E060A0
:100810001E24F060252470702C7F7E120E78EF600D
:10082000037F31227FBE120E78EF60037F34227F78
:10083000DE120E78EF60037F37227FEE120E78EF24
:1008400060037F2A22D280C281D282AF80EF24430C
:10085000601724E0601E24F060252470702C7F7DDA
:10086000120E78EF60037F32227FBD120E78EF60A8
:10087000037F35227FDD120E78EF60037F38227F01
:10088000ED120E78EF60037F3022D280D281C282D7
:10089000AF80EF2445601724E0601E24F06025241B
:1008A00070702C7F7B120E78EF60037F33227FBB4A
:1008B000120E78EF60037F36227FDB120E78EF6036
:1008C000037F39227FEB120E78EF60037F23227FB4
:0208D000002204
:090ED4004D4C004D42004D480058
:090E1200010800010902010A00B7
:100E4D0053890F438920758BFD758DFDD28E759855
:060E5D0050D2AFD2AC221E
:060CC1008B348A358936F0
:100CC700E4FFAB34AA35A936EFFD3395E08D82F505
:100CD70083120981600AF5993099FDC2990F80E264
:010CE70022EA
:100DD100E4FF740B2FF8E66011C3EF6480949E501A
:0A0DE10009740B2FF8E4F60F80E808
:010DEB0022E5
:030023000208D2FE
:1008D200C0E0C0F0C083C082C0D075D000C000C0EC
:0D08E20001C002C003C004C005C006C0076D
:1008EF0030985BC298740B2508F8A6990508E5089F
:1008FF006509704AE50A701F120A828F33E533705B
:10090F0008120DD17508008032E533B4FF07750A60
:10091F0001050980298008E50AB4010E850D33E52C
:10092F00332509F509750A028014E50AB4020F127E
:0E093F000BBE120DD1750800750A0075090275
:10094D00D007D006D005D004D003D002D001D000FE
:0B095D00D0D0D082D083D0F0D0E032A8
:100BBE00E50B6450704CE50C24B9601B24F76028DB
:100BCE0024FD600B240B703A850D3E850E3D22E50B
:100BDE003C6404702D8006E53C64057025F5377580
:100BEE00380075390BFB8010E53CB40615753700DF
:100BFE0075380075390B7B007A00795B120C89E42D
:030C0E00F53C2290
:100A8200E50B6450707AE50C1209D00ABA420AE307
:100A9200430AD8450AFC470AC9480AAF4C0AFF5024
:100AA2000AF9530AEE540AD55500000AD5753F01DA
:100AB2007BFF7A0E79D48009E4F53F7BFF7A0E79C9
:100AC200D7120CC17F00227BFF7A0E79DA120CC199
:100AD2007F02227F0022E53CB40103E4F53C7F0063
:100AE20022E53CB40203E4F53C7F0022E53CB4037A
:100AF20003E4F53C7F00227FFF227FFF227FFF225B
:030B02007F00224F
:100D0E0075414D754253754302120968F5449000C2
:100D1E0001120981F545E4F546753C04FB7A00792C
:040D2E0041020CC1B1
:100D320075474D754847754902120968F54A900092
:100D420001120981F54BE4F54C753C05FB7A0079FB
:040D520047020CC187
:100D5600754D4D754E50754F02120968F55090004D
:100D660001120981F551E4F552753C06FB7A0079CA
:040D76004D020CC15D
:030E1B00015A0079
:100E8C00E4F5C8F5CC75CD4CF5CA75CB4CD2CAD2AD
:040E9C00AFD2AD2202
:03002B00020C11B3
:040C1100C0E0C0D0AF
:100C1500C2CF055AC3E55A648094A84028755A0086
:100C25000540E540648094BC401B754000053DE5EA
:100C35003D648094BC400E753D00E53E648094980B
:050C45004003753E00B4
:050C4A00D0D0D0E03223
:060D7A008B568A578958D0
:100D8000E4FFAB56AA57A958EFFD3395E08D82F5E5
:090D90008312098160030F80E960
:010D99002237
:0F0EA000D3ED6480F8EF648098400122AF052203
:060B05008B298A2A892BCE
:100B0B00753001120D7AAE07AB2CAA2DA92E120D42
:100B1B007AAD07AF06120EA08F31E4F52FC3E53186
:100B2B006480F8E52F648098502CAB2CAA2DA92E4D
:100B3B00AF2FEF3395E0FE8F82F583120981FDAB6A
:100B4B0029AA2AA92B8F828E831209816D60037FBC
:080B5B000022052F80C77F0175
:010B6300226F
:060C89008B348A35893628
:100C8F00E4F53AAB37AA38A939AF3AEF3395E0FE1E
:100C9F008F82F58312098160188F828E83120981EA
:100CAF00AB34AA35A9368F828E831209AE053A80EE
:010CBF00D262
:010CC0002211
:100C4F00E4FFFEC28CC28D5389F0438901758CFC81
:100C5F00758AC1D28CC2B30FBF00010E308DFD75E6
:100C6F008CFC758AC1C28DB2B30FBF00010EC3EFEA
:090C7F009464EE6480948040DE70
:010C88002249
:100A0200020DECE493A3F8E493A34003F68001F211
:100A120008DFF48029E493A3F85407240CC8C333F5
:100A2200C4540F4420C8834004F456800146F6DFC4
:100A3200E4800B0102040810204080900E06E47E40
:100A4200019360BCA3FF543F30E509541FFEE493B9
:100A5200A360010ECF54C025E060A840B8E493A380
:100A6200FAE493A3F8E493A3C8C582C8CAC583CAAB
:100A7200F0A3C8C582C8CAC583CADFE9DEE780BE63
:010E1E0000D3
:10096800BB010689828A83E0225002E722BBFE028D
:09097800E32289828A83E49322C0
:10098100BB010CE58229F582E5833AF583E022502B
:1009910006E92582F8E622BBFE06E92582F8E22275
:0D09A100E58229F582E5833AF583E493228F
:1009AE00F8BB010DE58229F582E5833AF583E8F07F
:1009BE00225006E92582C8F622BBFE05E92582C82B
:0209CE00F22213
:1009D000D083D082F8E4937012740193700DA3A3B6
:1009E00093F8740193F5828883E4737402936860CA
:0609F000EFA3A3A380DFCA
:00000001FF
