:03000000020BDD13
:0C0BDD00787FE4F6D8FD758181020C24BD
:100CE3004E554C4F00496E63697869616C697A614E
:100CF300000203270BBADC4E3401F52D5D020C8391
:100D0300D502102FBDBF3A021E0A40789C01F98715
:100D1300FF83C4FA4D866F867B61F95BF50A424E09
:100D230031020EC1BD0220D6F783565ABFB7F8B8B9
:100D33000434AC018F34B034AF34AD60F9018E3478
:0B0D4300B156984C55018B29A9F6D53C
:0C0FE50001610001600001630001620076
:100F5800E4FF74642FF9E76011C3EF6480949E5036
:0A0F68000974642FF8E4F60F80E826
:010F7200225C
:10080000E4F529F52AF52B75083085080A750930B5
:1008100085090BE4F50CFB7A00790A120EB0E55F4E
:1008200070FC7866E6F50DE4F50E7467250EF8E6C3
:10083000FF6420600B7410250EF8A607050E80EAF1
:10084000E50E04F50FE4F50EE50E250F2464F8E639
:10085000FF600B7424250EF8A607050E80EA752F9D
:10086000FF75300C7531E37B007A007910120D4E64
:10087000EF7078AF29EF3395E0FE7C007D1D120C00
:10088000D174442FF974023EFA7B01C0031B8B3BE9
:10089000753C00753D10D003120DFFAF29EF339565
:1008A000E0FE7C007D1D120CD174582FF974023EBD
:1008B000FA7B01C0031B8B3B753C00753D24D003C4
:1008C000120DFFAF29EF3395E0FE7C007D1D120C69
:1008D000D1745D2FF974023EFA7B01C0031B8B3B80
:1008E000753C00753D0AD003120DFF7B007A00793C
:1008F00064120E377B007A007910120E377B007A73
:10090000007924120E377B007A00790A120ED4E5A2
:100910005F70FC7866E6F50DE4F50E7467250EF859
:10092000E6FF6420600B7410250EF8A607050E8004
:10093000EAE50E04F50FE4F50EE50E250F2464F844
:10094000E6FF600B7424250EF8A607050E80EA1258
:100950000F58752FFF75300C7531E37B007A0079E5
:1009600010120D4EEF7078AF29EF3395E0FE7C004A
:100970007D1D120CD174222FF974013EFA7B01C047
:10098000031B8B3B753C00753D10D003120DFFAF70
:1009900029EF3395E0FE7C007D1D120CD174362FBB
:1009A000F974013EFA7B01C0031B8B3B753C00755B
:1009B0003D24D003120DFFAF29EF3395E0FE7C00FC
:1009C0007D1D120CD1743B2FF974013EFA7B01C0DE
:1009D000031B8B3B753C00753D0AD003120DFF7B5A
:1009E000007A00790A120EF8E55F70FC7866E6F589
:1009F0000DE4F50E7467250EF8E6FF6420600B74B5
:100A000010250EF8A607050E80EAE50E04F50FE4A2
:100A1000F50EE50E250F2464F8E6FF600B7424251F
:100A20000EF8A607050E80EA120F58752FFF7530D5
:100A30000C7531E37B007A007910120D4EEF70785F
:100A4000AF29EF3395E0FE7C007D1D120CD17400C0
:100A50002FF974003EFA7B01C0031B8B3B753C00F1
:100A6000753D10D003120DFFAF29EF3395E0FE7CEA
:100A7000007D1D120CD174142FF974003EFA7B0115
:100A8000C0031B8B3B753C00753D24D003120DFF4A
:100A9000AF29EF3395E0FE7C007D1D120CD1741957
:100AA0002FF974003EFA7B01C0031B8B3B753C00A1
:100AB000753D0AD003120DFF0509D3E50964809442
:100AC000B950030208100508D3E508648094B150BA
:040AD0000302080A0B
:010AD40022FF
:100FD100120FA6120F3C7BFF7A0C79E8120E6312F6
:040FE100080080FE86
:100F3C007F381210107F381210107F0E1210107F95
:0C0F4C00061210107F01121010020F8E10
:100FBC00C28CC28D5389F0438902758AB6D28C30AB
:050FCC008DFDC28C2226
:100F8E00C28CC28D5389F0438901758CF4758A1514
:080F9E00D28C308DFDC28C22C3
:0C100400D2B68F90D2B7120FBCC2B72238
:0B101000C2B68F90D2B7C2B7020FBC6F
:060E8A008B388A39893A19
:100E9000E4FEAB38AA39A93AEEFD3395E08D82F530
:100EA00083120C82FF60061210040E80E5020FBC54
:081024007F01121010020F8E73
:09101B004D4C004D42004D48000F
:030FF100013F00BD
:100FA60053890F438920758BFD758DFDD28E7598FB
:060FB60050D2AFD2AC22C4
:060E63008B388A39893A40
:100E6900E4FFAB38AA39A93AEFFD3395E08D82F555
:100E790083120C82600AF5993099FDC2990F80E2BC
:010E89002246
:100F7300E4FF74402FF8E66011C3EF6480949E5041
:0A0F83000974402FF8E4F60F80E82F
:010F8D002241
:03002300020DAD1E
:100DAD00C0E0C0F0C083C082C0D075D000C000C00C
:0D0DBD0001C002C003C004C005C006C0078D
:100DCA00309817C2987440253FF8A699053F120A31
:0A0DDA00D5EF6006120F73753F009D
:100DE400D007D006D005D004D003D002D001D00063
:0B0DF400D0D0D082D083D0F0D0E0320D
:100AD500E540B45010E541B44C0B7562017BFF7ADB
:100AE50010791B802BE540B45010E541B4420BE46E
:100AF500F5627BFF7A10791E8016E540B45017E544
:100B050041B448128543608542617BFF7A107921A3
:100B1500120E637F0122E540B45010E541B4450B48
:100B2500E55FB40103E4F55F7F0122E540B45010B1
:100B3500E541B4430BE55FB40203E4F55F7F0122B1
:100B4500E540B45010E541B4540BE55FB40303E44C
:100B5500F55F7F0122E5406450702CE541645370D8
:100B650026E55FB4041E7B007A007940120E8A7573
:100B75003B00753C00753D407B007A007964120DA1
:100B8500FFE4F55F7F0122E540B45022E541B4471B
:100B95001DE55FB40515753B00753C00753D407B53
:100BA500007A007964120DFFE4F55F7F0122E540CC
:100BB500B45022E541B4501DE55FB40615753B0000
:100BC500753C00753D407B007A007964120DFFE4A9
:080BD500F55F7F01227F002281
:100EB000752C4D752D53752E02120C69F52F90006F
:100EC00001120C82F530E4F531755F04FB7A00798C
:040ED0002C020E637F
:100ED400752C4D752D47752E02120C69F52F900057
:100EE40001120C82F530E4F531755F05FB7A007967
:040EF4002C020E635B
:100EF800752C4D752D50752E02120C69F52F90002A
:100F080001120C82F530E4F531755F06FB7A007941
:040F18002C020E6336
:060F1C008B358A3689378F
:100F2200E4FFAB35AA36A937EFFD3395E08D82F5A4
:090F320083120C8260030F80E9B8
:010F3B002293
:0F0FF500D3ED6480F8EF648098400122AF0522AD
:060D4E008B2C8A2D892E7A
:100D5400753301120F1CAE07AB2FAA30A931120F45
:100D64001CAD07AF06120FF58F34E4F532C3E5343A
:100D74006480F8E532648098502CAB2FAA30A931F6
:100D8400AF32EF3395E0FE8F82F583120C82FDAB18
:100D94002CAA2DA92E8F828E83120C826D60037F64
:080DA4000022053280C77F0127
:010DAC002224
:060DFF008B388A39893AA5
:100E0500E4F53EAB3BAA3CA93DAF3EEF3395E0FE92
:100E15008F82F583120C8260188F828E83120C826A
:100E2500AB38AA39A93A8F828E83120CAF053E8062
:010E3500D2EA
:010E36002299
:060E37008B2C8A2D892E90
:100E3D00E4FFAB2CAA2DA92EEFFD3395E08D82F5A5
:100E4D0083120C82600FEF3395E08D82F583E412EF
:050E5D000CAF0F80DD69
:010E6200226D
:100BE900020FD1E493A3F8E493A34003F68001F242
:100BF90008DFF48029E493A3F85407240CC8C3330D
:100C0900C4540F4420C8834004F456800146F6DFDB
:100C1900E4800B0102040810204080900FE5E47E77
:100C2900019360BCA3FF543F30E509541FFEE493D0
:100C3900A360010ECF54C025E060A840B8E493A397
:100C4900FAE493A3F8E493A3C8C582C8CAC583CAC2
:100C5900F0A3C8C582C8CAC583CADFE9DEE780BE7A
:010FF40000FC
:100C6900BB010689828A83E0225002E722BBFE0289
:090C7900E32289828A83E49322BC
:100C8200BB010CE58229F582E5833AF583E0225027
:100C920006E92582F8E622BBFE06E92582F8E22271
:0D0CA200E58229F582E5833AF583E493228B
:100CAF00F8BB010DE58229F582E5833AF583E8F07B
:100CBF00225006E92582C8F622BBFE05E92582C827
:020CCF00F2220F
:100CD100EF8DF0A4A8F0CF8CF0A428CE8DF0A42E37
:020CE100FE22F1
:00000001FF
