:03000000020A2AC7
:0C0A2A00787FE4F6D8FD75817E020A7129
:100B98000203270BBADC4E3401F52D5D020C83D518
:100BA80002102FBDBF3A021E0A40789C01F987FF48
:100BB80083C4FA4D866F867B61F95BF50A424E3134
:100BC800020EC1BD0220D6F783565ABFB7F8B80443
:100BD80034AC018F34B034AF34AD60F9018E34B128
:0A0BE80056984C55018B29A9F6D54B
:0C0EF500013E00013D00014000013F00F3
:100EBF00E4FF74612FF9E76011C3EF6480949E50D3
:0A0ECF000974612FF8E4F60F80E8C3
:010ED90022F6
:100FA500120F52120F91120EA3120F268F3280F9D3
:100EA3007F38120FD07F38120FD07F0E120FD07FF2
:0C0EB30006120FD07F01120FD0020F0EAC
:100F6800C28CC28D5389F0438902758AB6D28C30FF
:050F78008DFDC28C227A
:100F0E00C28CC28D5389F0438901758CF4758A1594
:080F1E00D28C308DFDC28C2243
:0C0FC400D2B68F90D2B7120F68C2B722CD
:0B0FD000C2B68F90D2B7C2B7020F6804
:060DF1008B538A54895562
:100DF700E4FEAB53AA54A955EEFD3395E08D82F579
:100E07008312090DFF6006120FC40E80E5020F68FA
:080FE4007F01120FD0020F0E75
:100F2600120800EF655F600B8F5F120FC4120D454C
:050F3600AF5F227F0007
:010F3B002293
:100F3C00C28CC28D5389F0438902758CF8758ACCAA
:060F4C00D28C308DFD2265
:100F7D00E4FEE5806F60037F0022120F3C0EBE0978
:030F8D00F17F01F0
:010F9000223E
:10080000C280D281D282AF80EF2442601724E060A0
:100810001E24F060252470702C7F7E120F7DEF6007
:10082000037F31227FBE120F7DEF60037F34227F72
:10083000DE120F7DEF60037F37227FEE120F7DEF18
:1008400060037F2A22D280C281D282AF80EF24430C
:10085000601724E0601E24F060252470702C7F7DDA
:10086000120F7DEF60037F32227FBD120F7DEF609C
:10087000037F35227FDD120F7DEF60037F38227FFB
:10088000ED120F7DEF60037F3022D280D281C282D1
:10089000AF80EF2445601724E0601E24F06025241B
:1008A00070702C7F7B120F7DEF60037F33227FBB44
:1008B000120F7DEF60037F36227FDB120F7DEF602A
:1008C000037F39227FEB120F7DEF60037F23227FAE
:0208D000002204
:090FDB004D4C004D42004D480050
:090F0100010800010902010A00C7
:100F520053890F438920758BFD758DFDD28E75984F
:060F620050D2AFD2AC2218
:060DCA008B348A358936E6
:100DD000E4FFAB34AA35A936EFFD3395E08D82F5FB
:100DE0008312090D600AF5993099FDC2990F80E2CE
:010DF00022E0
:100EDA00E4FF740B2FF8E66011C3EF6480949E5010
:0A0EEA0009740B2FF8E4F60F80E8FE
:010EF40022DB
:030023000209943B
:10099400C0E0C0F0C083C082C0D075D000C000C029
:0D09A40001C002C003C004C005C006C007AA
:1009B10030985BC298740B2508F8A6990508E508DC
:1009C1006509704AE50A701F120AB68F33E5337064
:1009D10008120EDA7508008032E533B4FF07750A94
:1009E10001050980298008E50AB4010E850D33E56A
:1009F100332509F509750A028014E50AB4020F12BC
:0E0A01000BF2120EDA750800750A0075090274
:100A0F00D007D006D005D004D003D002D001D0003B
:0B0A1F00D0D0D082D083D0F0D0E032E5
:100BF200E50B6450704CE50C24B9601B24F76028A7
:100C020024FD600B240B703A850D3E850E3D22E5D6
:100C12003C6404702D8006E53C64057025F537754B
:100C2200380075390BFB8010E53CB40615753700AA
:100C320075380075390B7B007A007961120D0DE46D
:030C4200F53C225C
:100AB600E50B6450707AE50C12096E0AEE420B17CC
:100AC600430B0C450B30470AFD480AE34C0B3350E9
:100AD6000B2D530B22540B095500000B09753F01D2
:100AE6007BFF7A0F79DB8009E4F53F7BFF7A0F798C
:100AF600DE120DCA7F00227BFF7A0F79E1120DCA42
:100B06007F02227F0022E53CB40103E4F53C7F002E
:100B160022E53CB40203E4F53C7F0022E53CB40345
:100B260003E4F53C7F00227FFF227FFF227FFF2226
:030B36007F00221B
:100E170075414D7542537543021208F4F54490002D
:100E27000112090DF545E4F546753C04FB7A007996
:040E370041020DCA9D
:100E3B0075474D7548477549021208F4F54A9000FD
:100E4B000112090DF54BE4F54C753C05FB7A007965
:040E5B0047020DCA73
:100E5F00754D4D754E50754F021208F4F5509000B8
:100E6F000112090DF551E4F552753C06FB7A007934
:040E7F004D020DCA49
:030F0A0001600083
:100F9100E4F5C8F5CC75CD4CF5CA75CB4CD2CAD2A7
:040FA100AFD2AD22FC
:03002B00020C962E
:040C9600C0E0C0D02A
:100C9A00C2CF0560C3E560648094A84028756000EF
:100CAA000540E540648094BC401B754000053DE565
:100CBA003D648094BC400E753D00E53E6480949886
:050CCA004003753E002F
:050CCF00D0D0D0E0329E
:060E83008B568A578958C6
:100E8900E4FFAB56AA57A958EFFD3395E08D82F5DB
:090E99008312090D60030F80E9CA
:010EA200222D
:0F0FB500D3ED6480F8EF648098400122AF0522ED
:060B39008B298A2A892B9A
:100B3F00753001120E83AE07AB2CAA2DA92E120E03
:100B4F0083AD07AF06120FB58F31E4F52FC3E53133
:100B5F006480F8E52F648098502CAB2CAA2DA92E19
:100B6F00AF2FEF3395E0FE8F82F58312090DFDABAA
:100B7F0029AA2AA92B8F828E8312090D6D60037FFC
:080B8F000022052F80C77F0141
:010B9700223B
:060D0D008B348A358936A3
:100D1300E4F53AAB37AA38A939AF3AEF3395E0FE99
:100D23008F82F58312090D60188F828E8312090D4D
:100D3300AB34AA35A9368F828E8312094C053A80CB
:010D4300D2DD
:010D4400228C
:100CD400C3ED6480948A5007E412093AED8021ED53
:100CE40075F00A1208D2AFF0EF243012093AED750C
:100CF400F00A1208D2AFF0EF75F00AA4FFC3ED9F1B
:090D0400243090000112094C2278
:060D75008B598A5A895BCC
:100D7B00E4FFAB59AA5AA95BEFFD3395E08D82F5E1
:100D8B008312090D600FEF3395E08D82F583E4122A
:050D9B00094C0F80DD92
:010DA0002230
:060DA1008B5C8A5D895E97
:100DA700E4FFC3ED6480F8EF6480985015AB5CAA4C
:100DB7005DA95EEFF5823395E0F583E412094C0FE8
:020DC70080E0CA
:010DC9002207
:100D4500E4FFFEC28CC28D5389F0438901758CFC8A
:100D5500758AC1D28CC2B3308DFD758CFC758AC184
:0F0D6500C28DB2B30FBF00010EEF64644E70E891
:010D7400225C
:100C4500C28CC28D5389F0438901758CFC758AC1AC
:100C5500D28CC2B3E4FFE4FDFC308DFD758CFC75D0
:100C65008AC1C28DB2B30DBD00010CBC01EBBD2C18
:100C7500E8E4FCFD308DFD758CFC758A8FC28DB264
:100C8500B30DBD00010CBC01EBBD2CE80FBF04C6C4
:010C9500223C
:100A3600020FA5E493A3F8E493A34003F68001F222
:100A460008DFF48029E493A3F85407240CC8C333C1
:100A5600C4540F4420C8834004F456800146F6DF90
:100A6600E4800B0102040810204080900EF5E47E1D
:100A7600019360BCA3FF543F30E509541FFEE49385
:100A8600A360010ECF54C025E060A840B8E493A34C
:100A9600FAE493A3F8E493A3C8C582C8CAC583CA77
:100AA600F0A3C8C582C8CAC583CADFE9DEE780BE2F
:010F0D0000E3
:1008D200C2D530F707B2D563F0FF05F030E70CB2AE
:1008E200D5F4048463F0FF05F080018430D502F46E
:0208F2000422DE
:1008F400BB010689828A83E0225002E722BBFE0202
:09090400E32289828A83E4932234
:10090D00BB010CE58229F582E5833AF583E022509F
:10091D0006E92582F8E622BBFE06E92582F8E222E9
:0D092D00E58229F582E5833AF583E4932203
:10093A00BB010689828A83F0225002F722BBFE019C
:02094A00F32296
:10094C00F8BB010DE58229F582E5833AF583E8F0E1
:10095C00225006E92582C8F622BBFE05E92582C88D
:02096C00F22275
:10096E00D083D082F8E4937012740193700DA3A318
:10097E0093F8740193F5828883E47374029368602C
:06098E00EFA3A3A380DF2C
:00000001FF
