:03000000020C7B74
:0C0C7B00787FE4F6D8FD75817F020CC282
:100AB2004E2064652063617274616F3F004E206452
:100AC200652073656E61646F723F004E206465201D
:100AD200676F7665726E2E3F004E206465207072DD
:100AE20065732E3F0046494D2121210055726E61EA
:100AF20020426C6F717565616461000203270BBA55
:100B0200DC4E3401F52D5D020C83D502102FBDBFE2
:100B12003A021E0A40789C01F987FF83C4FA4D8687
:100B22006F867B61F95BF50A424E31020EC1BD024E
:100B320020D6F783565ABFB7F8B80434AC018F34C5
:100B4200B034AF34AD60F9018E34B156984C5501D2
:050B52008B29A9F6D576
:10100900013300013200013E00013D0001290001C8
:051019002A0001340172
:10104400E4FF74622FF9E76011C3EF6480949E504B
:0A1054000974622FF8E4F60F80E83B
:01105E00226F
:020EAC008F4174
:100EAE001210F68F42E5426021C3E5416480F8E5F9
:100EBE0029648098500E12110474362529F8A64222
:0C0ECE0005298006E4F5297F01227F0041
:010EDA0022F5
:100BED00EF14602614603C14605214606824047085
:100BFD007C1211247BFF7A0A79B2120F577B007A8F
:100C0D00007936120EDBE4F52A221211247BFF7ACD
:100C1D000A79BF120F577B007A007936120EDB75F9
:100C2D002A01221211247BFF7A0A79CD120F577BEC
:100C3D00007A007936120EDB752A02221211247BFE
:100C4D00FF7A0A79DB120F577B007A007936120E84
:100C5D00DB752A03221211247BFF7A0A79E7120F22
:0E0C6D00577B007A007936120EDB752A0422BE
:100800001210A81210281211247B007A00793612D7
:100810000EDBC3E53364809491500DC3E5336480EF
:1008200094884004E53D7013E534600F1211247B79
:10083000FF7A0A79EE120F57E4F534C3E53364808A
:100840009491501CC3E533648094884013E53DB413
:10085000010EE53464016008753401E4FF120BED0C
:10086000E53460AEE52A14604814605D14607214CB
:1008700070030208FD240470997F02120EACEF6031
:1008800091AF36EF3395E0FEEF24D0FFEE34FFFE5C
:100890007C007D0A1209A8AD37ED3395E0FCED240C
:1008A000D0FDEC34FFCD2FF540ED3EF53F7F0180CC
:1008B000467F02120EACEF70030208127B007A0032
:1008C0007936120F7D7F02802E7F02120EACEF7000
:1008D000030208127B007A007936120FA17F038091
:1008E000167F02120EACEF70030208127B007A0032
:1008F0007936120FC57F04120BED02081274FF70D7
:0C09000003020812E4FF120BED020812C3
:101028007F381211107F381211107F0E1211107FA5
:0C103800061211107F0112111002107A34
:1010BE00C28CC28D5389F0438902758AB6D28C30A8
:0510CE008DFDC28C2223
:10107A00C28CC28D5389F0438901758CF4758A1527
:08108A00D28C308DFDC28C22D6
:0C110400D2B68F90D2B71210BEC2B72234
:0B111000C2B68F90D2B7C2B70210BE6B
:060F57008B418A42894330
:100F5D00E4FEAB41AA42A943EEFD3395E08D82F547
:100F6D0083120947FF60061211040E80E50210BEC0
:081124007F0112111002107A84
:0D10F6001209E0EF656160038F61227F0049
:0111030022C9
:10109200C28CC28D5389F0438902758CF8758ACC53
:0610A200D28C308DFD220E
:1010D300E4FEE5806F60037F00221210920EBE09CA
:0310E300F17F0199
:0110E60022E7
:1009E000C280D281D282AF80EF2442601724E060BF
:1009F0001E24F060252470702C7F7E1210D3EF60CF
:100A0000037F31227FBE1210D3EF60037F34227F39
:100A1000DE1210D3EF60037F37227FEE1210D3EF88
:100A200060037F2A22D280C281D282AF80EF24432A
:100A3000601724E0601E24F060252470702C7F7DF8
:100A40001210D3EF60037F32227FBD1210D3EF600C
:100A5000037F35227FDD1210D3EF60037F38227FC2
:100A6000ED1210D3EF60037F3022D280D281C28298
:100A7000AF80EF2445601724E0601E24F060252439
:100A800070702C7F7B1210D3EF60037F33227FBB0B
:100A90001210D3EF60037F36227FDB1210D3EF609A
:100AA000037F39227FEB1210D3EF60037F23227F75
:020AB000002222
:09111B004D48004D4C004D42000E
:09101E00010800010902010A00A9
:1010A80053890F438920758BFD758DFDD28E7598F8
:0610B80050D2AFD2AC22C1
:060F30008B4B8A4C894D39
:100F3600E4FFAB4BAA4CA94DEFFD3395E08D82F54E
:100F460083120947600AF5993099FDC2990F80E22C
:010F56002278
:10105F00E4FF740B2FF8E66011C3EF6480949E5089
:0A106F0009740B2FF8E4F60F80E877
:011079002254
:03002300020B5776
:100B5700C0E0C0F0C083C082C0D075D000C000C064
:0D0B670001C002C003C004C005C006C007E5
:100B740030985BC298740B2508F8A6990508E50817
:100B84006509704AE50A701F120D078F4AE54A701D
:100B94000812105F7508008032E54AB4FF07750A31
:100BA40001050980298008E50AB4010E850D4AE58E
:100BB4004A2509F509750A028014E50AB4020F12E0
:0E0BC4000DE012105F750800750A0075090239
:100BD200D007D006D005D004D003D002D001D00077
:0B0BE200D0D0D082D083D0F0D0E03221
:100DE000E50B64507054E50C24B9602324F760309F
:100DF00024FD6013240B7042850D33850E327BFF7A
:100E00007A11791B020F30E52B6404702D8006E502
:100E10002B64057025F54E754F0075500BFB801047
:100E2000E52BB40615754E00754F0075500B7B0011
:0B0E30007A007962120E74E4F52B22A8
:100D0700E50B64507071E50C1209BA0D3F420D5F97
:100D1700430D54450D78470D4E480D344C0D7B500F
:100D27000D75530D6A540D515500000D51753D0158
:100D37007BFF7A11791E8009E4F53D7BFF7A1179F3
:100D470021120F307F00227F02227F0022E52BB481
:100D57000103E4F52B7F0022E52BB40203E4F52B16
:100D67007F0022E52BB40303E4F52B7F00227FFFEE
:0A0D7700227FFF227FFF227F00226F
:100F7D0075414D75425375430212092EF54490008B
:100F8D0001120947F545E4F546752B04FB7A007906
:040F9D0041020F30CE
:100FA10075414D75424775430212092EF544900073
:100FB10001120947F545E4F546752B05FB7A0079E1
:040FC10041020F30AA
:100FC50075414D75425075430212092EF544900046
:100FD50001120947F545E4F546752B06FB7A0079BC
:040FE50041020F3086
:060FE9008B5B8A5C895D50
:100FEF00E4FFAB5BAA5CA95DEFFD3395E08D82F565
:090FFF008312094760030F80E929
:0110080022C5
:0F10E700D3ED6480F8EF648098400122AF0522BA
:060D81008B528A538954D5
:100D8700755901120FE9AE07AB55AA56A957120FAD
:100D9700E9AD07AF061210E78F5AE4F558C3E55AD5
:100DA7006480F8E558648098502CAB55AA56A9572B
:100DB700AF58EF3395E0FE8F82F583120947FDABFD
:100DC70052AA53A9548F828E831209476D60037FFD
:080DD7000022055880C77F01CE
:010DDF0022F1
:060E74008B4B8A4C894DF6
:100E7A00E4F551AB4EAA4FA950AF51EF3395E0FEBE
:100E8A008F82F58312094760188F828E8312094771
:100E9A00AB4BAA4CA94D8F828E83120986055180CD
:010EAA00D275
:010EAB002224
:100E3B00C3ED6480948A5007E4120974ED8021EDB0
:100E4B0075F00A12090CAFF0EF2430120974ED752E
:100E5B00F00A12090CAFF0EF75F00AA4FFC3ED9F77
:090E6B00243090000112098622D6
:060F07008B5E8A5F896029
:100F0D00E4FFC3ED6480F8EF6480985015AB5EAAE2
:100F1D005FA960EFF5823395E0F583E41209860F42
:020F2D0080E062
:010F2F00229F
:060EDB008B418A428943AD
:100EE100E4FFAB41AA42A943EFFD3395E08D82F5C2
:100EF10083120947600FEF3395E08D82F583E41289
:050F010009860F80DDF0
:010F060022C8
:100C8700020800E493A3F8E493A34003F68001F27B
:100C970008DFF48029E493A3F85407240CC8C3336E
:100CA700C4540F4420C8834004F456800146F6DF3D
:100CB700E4800B0102040810204080901009E47EB4
:100CC700019360BCA3FF543F30E509541FFEE49332
:100CD700A360010ECF54C025E060A840B8E493A3F9
:100CE700FAE493A3F8E493A3C8C582C8CAC583CA24
:100CF700F0A3C8C582C8CAC583CADFE9DEE780BEDC
:0110270000C8
:10090C00C2D530F707B2D563F0FF05F030E70CB273
:10091C00D5F4048463F0FF05F080018430D502F433
:02092C000422A3
:10092E00BB010689828A83E0225002E722BBFE02C7
:09093E00E32289828A83E49322FA
:10094700BB010CE58229F582E5833AF583E0225065
:1009570006E92582F8E622BBFE06E92582F8E222AF
:0D096700E58229F582E5833AF583E49322C9
:10097400BB010689828A83F0225002F722BBFE0162
:02098400F3225C
:10098600F8BB010DE58229F582E5833AF583E8F0A7
:10099600225006E92582C8F622BBFE05E92582C853
:0209A600F2223B
:1009A800EF8DF0A4A8F0CF8CF0A428CE8DF0A42E63
:0209B800FE221D
:1009BA00D083D082F8E4937012740193700DA3A3CC
:1009CA0093F8740193F5828883E4737402936860E0
:0609DA00EFA3A3A380DFE0
:00000001FF
